{
  "contractName": "SolnSquareVerifier",
  "abi": [
    {
      "constant": true,
      "inputs": [
        {
          "name": "interfaceId",
          "type": "bytes4"
        }
      ],
      "name": "supportsInterface",
      "outputs": [
        {
          "name": "",
          "type": "bool"
        }
      ],
      "payable": false,
      "stateMutability": "view",
      "type": "function",
      "signature": "0x01ffc9a7"
    },
    {
      "constant": true,
      "inputs": [],
      "name": "name",
      "outputs": [
        {
          "name": "",
          "type": "string"
        }
      ],
      "payable": false,
      "stateMutability": "view",
      "type": "function",
      "signature": "0x06fdde03"
    },
    {
      "constant": true,
      "inputs": [
        {
          "name": "tokenId",
          "type": "uint256"
        }
      ],
      "name": "getApproved",
      "outputs": [
        {
          "name": "",
          "type": "address"
        }
      ],
      "payable": false,
      "stateMutability": "view",
      "type": "function",
      "signature": "0x081812fc"
    },
    {
      "constant": false,
      "inputs": [
        {
          "name": "to",
          "type": "address"
        },
        {
          "name": "tokenId",
          "type": "uint256"
        }
      ],
      "name": "approve",
      "outputs": [],
      "payable": false,
      "stateMutability": "nonpayable",
      "type": "function",
      "signature": "0x095ea7b3"
    },
    {
      "constant": true,
      "inputs": [],
      "name": "totalSupply",
      "outputs": [
        {
          "name": "",
          "type": "uint256"
        }
      ],
      "payable": false,
      "stateMutability": "view",
      "type": "function",
      "signature": "0x18160ddd"
    },
    {
      "constant": false,
      "inputs": [
        {
          "name": "from",
          "type": "address"
        },
        {
          "name": "to",
          "type": "address"
        },
        {
          "name": "tokenId",
          "type": "uint256"
        }
      ],
      "name": "transferFrom",
      "outputs": [],
      "payable": false,
      "stateMutability": "nonpayable",
      "type": "function",
      "signature": "0x23b872dd"
    },
    {
      "constant": false,
      "inputs": [
        {
          "name": "_myid",
          "type": "bytes32"
        },
        {
          "name": "_result",
          "type": "string"
        }
      ],
      "name": "__callback",
      "outputs": [],
      "payable": false,
      "stateMutability": "nonpayable",
      "type": "function",
      "signature": "0x27dc297e"
    },
    {
      "constant": true,
      "inputs": [
        {
          "name": "owner",
          "type": "address"
        },
        {
          "name": "index",
          "type": "uint256"
        }
      ],
      "name": "tokenOfOwnerByIndex",
      "outputs": [
        {
          "name": "",
          "type": "uint256"
        }
      ],
      "payable": false,
      "stateMutability": "view",
      "type": "function",
      "signature": "0x2f745c59"
    },
    {
      "constant": false,
      "inputs": [
        {
          "name": "_myid",
          "type": "bytes32"
        },
        {
          "name": "_result",
          "type": "string"
        },
        {
          "name": "_proof",
          "type": "bytes"
        }
      ],
      "name": "__callback",
      "outputs": [],
      "payable": false,
      "stateMutability": "nonpayable",
      "type": "function",
      "signature": "0x38bbfa50"
    },
    {
      "constant": false,
      "inputs": [],
      "name": "unpause",
      "outputs": [],
      "payable": false,
      "stateMutability": "nonpayable",
      "type": "function",
      "signature": "0x3f4ba83a"
    },
    {
      "constant": false,
      "inputs": [
        {
          "name": "from",
          "type": "address"
        },
        {
          "name": "to",
          "type": "address"
        },
        {
          "name": "tokenId",
          "type": "uint256"
        }
      ],
      "name": "safeTransferFrom",
      "outputs": [],
      "payable": false,
      "stateMutability": "nonpayable",
      "type": "function",
      "signature": "0x42842e0e"
    },
    {
      "constant": true,
      "inputs": [
        {
          "name": "index",
          "type": "uint256"
        }
      ],
      "name": "tokenByIndex",
      "outputs": [
        {
          "name": "",
          "type": "uint256"
        }
      ],
      "payable": false,
      "stateMutability": "view",
      "type": "function",
      "signature": "0x4f6ccce7"
    },
    {
      "constant": true,
      "inputs": [
        {
          "name": "tokenId",
          "type": "uint256"
        }
      ],
      "name": "ownerOf",
      "outputs": [
        {
          "name": "",
          "type": "address"
        }
      ],
      "payable": false,
      "stateMutability": "view",
      "type": "function",
      "signature": "0x6352211e"
    },
    {
      "constant": true,
      "inputs": [
        {
          "name": "owner",
          "type": "address"
        }
      ],
      "name": "balanceOf",
      "outputs": [
        {
          "name": "",
          "type": "uint256"
        }
      ],
      "payable": false,
      "stateMutability": "view",
      "type": "function",
      "signature": "0x70a08231"
    },
    {
      "constant": false,
      "inputs": [],
      "name": "pause",
      "outputs": [],
      "payable": false,
      "stateMutability": "nonpayable",
      "type": "function",
      "signature": "0x8456cb59"
    },
    {
      "constant": true,
      "inputs": [],
      "name": "owner",
      "outputs": [
        {
          "name": "",
          "type": "address"
        }
      ],
      "payable": false,
      "stateMutability": "view",
      "type": "function",
      "signature": "0x8da5cb5b"
    },
    {
      "constant": true,
      "inputs": [],
      "name": "symbol",
      "outputs": [
        {
          "name": "",
          "type": "string"
        }
      ],
      "payable": false,
      "stateMutability": "view",
      "type": "function",
      "signature": "0x95d89b41"
    },
    {
      "constant": false,
      "inputs": [
        {
          "name": "to",
          "type": "address"
        },
        {
          "name": "approved",
          "type": "bool"
        }
      ],
      "name": "setApprovalForAll",
      "outputs": [],
      "payable": false,
      "stateMutability": "nonpayable",
      "type": "function",
      "signature": "0xa22cb465"
    },
    {
      "constant": false,
      "inputs": [
        {
          "name": "from",
          "type": "address"
        },
        {
          "name": "to",
          "type": "address"
        },
        {
          "name": "tokenId",
          "type": "uint256"
        },
        {
          "name": "_data",
          "type": "bytes"
        }
      ],
      "name": "safeTransferFrom",
      "outputs": [],
      "payable": false,
      "stateMutability": "nonpayable",
      "type": "function",
      "signature": "0xb88d4fde"
    },
    {
      "constant": true,
      "inputs": [
        {
          "name": "tokenId",
          "type": "uint256"
        }
      ],
      "name": "tokenURI",
      "outputs": [
        {
          "name": "",
          "type": "string"
        }
      ],
      "payable": false,
      "stateMutability": "view",
      "type": "function",
      "signature": "0xc87b56dd"
    },
    {
      "constant": true,
      "inputs": [],
      "name": "baseTokenURI",
      "outputs": [
        {
          "name": "",
          "type": "string"
        }
      ],
      "payable": false,
      "stateMutability": "view",
      "type": "function",
      "signature": "0xd547cfb7"
    },
    {
      "constant": true,
      "inputs": [
        {
          "name": "owner",
          "type": "address"
        },
        {
          "name": "operator",
          "type": "address"
        }
      ],
      "name": "isApprovedForAll",
      "outputs": [
        {
          "name": "",
          "type": "bool"
        }
      ],
      "payable": false,
      "stateMutability": "view",
      "type": "function",
      "signature": "0xe985e9c5"
    },
    {
      "constant": false,
      "inputs": [
        {
          "name": "newOwner",
          "type": "address"
        }
      ],
      "name": "transferOwnership",
      "outputs": [],
      "payable": false,
      "stateMutability": "nonpayable",
      "type": "function",
      "signature": "0xf2fde38b"
    },
    {
      "inputs": [
        {
          "name": "verifierAddress",
          "type": "address"
        }
      ],
      "payable": false,
      "stateMutability": "nonpayable",
      "type": "constructor",
      "signature": "constructor"
    },
    {
      "anonymous": false,
      "inputs": [
        {
          "indexed": false,
          "name": "index",
          "type": "uint256"
        },
        {
          "indexed": false,
          "name": "account",
          "type": "address"
        }
      ],
      "name": "SolutionAdded",
      "type": "event",
      "signature": "0x078793128cefb19aac38a33f9e5df39f67716907f6d747e8065545699e0b2b8d"
    },
    {
      "anonymous": false,
      "inputs": [
        {
          "indexed": true,
          "name": "from",
          "type": "address"
        },
        {
          "indexed": true,
          "name": "to",
          "type": "address"
        },
        {
          "indexed": true,
          "name": "tokenId",
          "type": "uint256"
        }
      ],
      "name": "Transfer",
      "type": "event",
      "signature": "0xddf252ad1be2c89b69c2b068fc378daa952ba7f163c4a11628f55a4df523b3ef"
    },
    {
      "anonymous": false,
      "inputs": [
        {
          "indexed": true,
          "name": "owner",
          "type": "address"
        },
        {
          "indexed": true,
          "name": "approved",
          "type": "address"
        },
        {
          "indexed": true,
          "name": "tokenId",
          "type": "uint256"
        }
      ],
      "name": "Approval",
      "type": "event",
      "signature": "0x8c5be1e5ebec7d5bd14f71427d1e84f3dd0314c0f7b2291e5b200ac8c7c3b925"
    },
    {
      "anonymous": false,
      "inputs": [
        {
          "indexed": true,
          "name": "owner",
          "type": "address"
        },
        {
          "indexed": true,
          "name": "operator",
          "type": "address"
        },
        {
          "indexed": false,
          "name": "approved",
          "type": "bool"
        }
      ],
      "name": "ApprovalForAll",
      "type": "event",
      "signature": "0x17307eab39ab6107e8899845ad3d59bd9653f200f220920489ca2b5937696c31"
    },
    {
      "anonymous": false,
      "inputs": [
        {
          "indexed": true,
          "name": "account",
          "type": "address"
        }
      ],
      "name": "Paused",
      "type": "event",
      "signature": "0x62e78cea01bee320cd4e420270b5ea74000d11b0c9f74754ebdbfc544b05a258"
    },
    {
      "anonymous": false,
      "inputs": [
        {
          "indexed": true,
          "name": "account",
          "type": "address"
        }
      ],
      "name": "Unpaused",
      "type": "event",
      "signature": "0x5db9ee0a495bf2e6ff9c91a7834c1ba4fdd244a5e8aa4e537bd38aeae4b073aa"
    },
    {
      "anonymous": false,
      "inputs": [
        {
          "indexed": true,
          "name": "previousOwner",
          "type": "address"
        },
        {
          "indexed": true,
          "name": "newOwner",
          "type": "address"
        }
      ],
      "name": "OwnershipTransferred",
      "type": "event",
      "signature": "0x8be0079c531659141344cd1fd0a4f28419497f9722a3daafe3b4186f6b6457e0"
    },
    {
      "constant": false,
      "inputs": [
        {
          "name": "_to",
          "type": "address"
        },
        {
          "name": "a",
          "type": "uint256[2]"
        },
        {
          "name": "a_p",
          "type": "uint256[2]"
        },
        {
          "name": "b",
          "type": "uint256[2][2]"
        },
        {
          "name": "b_p",
          "type": "uint256[2]"
        },
        {
          "name": "c",
          "type": "uint256[2]"
        },
        {
          "name": "c_p",
          "type": "uint256[2]"
        },
        {
          "name": "h",
          "type": "uint256[2]"
        },
        {
          "name": "k",
          "type": "uint256[2]"
        },
        {
          "name": "input",
          "type": "uint256[2]"
        }
      ],
      "name": "canMintToken",
      "outputs": [],
      "payable": false,
      "stateMutability": "nonpayable",
      "type": "function",
      "signature": "0xca4eea4f"
    },
    {
      "constant": false,
      "inputs": [
        {
          "name": "to",
          "type": "address"
        },
        {
          "name": "tokenId",
          "type": "uint256"
        }
      ],
      "name": "mint",
      "outputs": [
        {
          "name": "",
          "type": "bool"
        }
      ],
      "payable": false,
      "stateMutability": "nonpayable",
      "type": "function",
      "signature": "0x40c10f19"
    },
    {
      "constant": false,
      "inputs": [
        {
          "name": "to",
          "type": "address"
        },
        {
          "name": "a",
          "type": "uint256[2]"
        },
        {
          "name": "a_p",
          "type": "uint256[2]"
        },
        {
          "name": "b",
          "type": "uint256[2][2]"
        },
        {
          "name": "b_p",
          "type": "uint256[2]"
        },
        {
          "name": "c",
          "type": "uint256[2]"
        },
        {
          "name": "c_p",
          "type": "uint256[2]"
        },
        {
          "name": "h",
          "type": "uint256[2]"
        },
        {
          "name": "k",
          "type": "uint256[2]"
        },
        {
          "name": "input",
          "type": "uint256[2]"
        }
      ],
      "name": "mint",
      "outputs": [],
      "payable": false,
      "stateMutability": "nonpayable",
      "type": "function",
      "signature": "0xc67bd3d5"
    }
  ],
  "bytecode": "0x60806040523480156200001157600080fd5b50604051602080620045b7833981018060405260208110156200003357600080fd5b81019080805190602001909291905050506040805190810160405280601481526020017f48616f68616f205564616369747920546f6b656e0000000000000000000000008152506040805190810160405280600381526020017f48414f0000000000000000000000000000000000000000000000000000000000815250606060405190810160405280603f815260200162004578603f9139336000806101000a81548173ffffffffffffffffffffffffffffffffffffffff021916908373ffffffffffffffffffffffffffffffffffffffff1602179055506000809054906101000a900473ffffffffffffffffffffffffffffffffffffffff1673ffffffffffffffffffffffffffffffffffffffff16600073ffffffffffffffffffffffffffffffffffffffff167f8be0079c531659141344cd1fd0a4f28419497f9722a3daafe3b4186f6b6457e060405160405180910390a360008060146101000a81548160ff021916908315150217905550620001de6301ffc9a77c0100000000000000000000000000000000000000000000000000000000026200032b640100000000026401000000009004565b6200021b6380ac58cd7c0100000000000000000000000000000000000000000000000000000000026200032b640100000000026401000000009004565b6200025863780e9d637c0100000000000000000000000000000000000000000000000000000000026200032b640100000000026401000000009004565b82600f908051906020019062000270929190620003e9565b50816010908051906020019062000289929190620003e9565b508060119080519060200190620002a2929190620003e9565b50620002e0635b5e139f7c0100000000000000000000000000000000000000000000000000000000026200032b640100000000026401000000009004565b50505080601560006101000a81548173ffffffffffffffffffffffffffffffffffffffff021916908373ffffffffffffffffffffffffffffffffffffffff1602179055505062000498565b63ffffffff7c010000000000000000000000000000000000000000000000000000000002817bffffffffffffffffffffffffffffffffffffffffffffffffffffffff1916141515156200037d57600080fd5b6001806000837bffffffffffffffffffffffffffffffffffffffffffffffffffffffff19167bffffffffffffffffffffffffffffffffffffffffffffffffffffffff1916815260200190815260200160002060006101000a81548160ff02191690831515021790555050565b828054600181600116156101000203166002900490600052602060002090601f016020900481019282601f106200042c57805160ff19168380011785556200045d565b828001600101855582156200045d579182015b828111156200045c5782518255916020019190600101906200043f565b5b5090506200046c919062000470565b5090565b6200049591905b808211156200049157600081600090555060010162000477565b5090565b90565b6140d080620004a86000396000f3fe608060405234801561001057600080fd5b50600436106101ab576000357c0100000000000000000000000000000000000000000000000000000000900480636352211e116100fb578063b88d4fde116100b4578063ca4eea4f1161008e578063ca4eea4f14610de2578063d547cfb7146110a8578063e985e9c51461112b578063f2fde38b146111a7576101ab565b8063b88d4fde14610970578063c67bd3d514610a75578063c87b56dd14610d3b576101ab565b80636352211e1461078357806370a08231146107f15780638456cb59146108495780638da5cb5b1461085357806395d89b411461089d578063a22cb46514610920576101ab565b806327dc297e116101685780633f4ba83a116101425780633f4ba83a1461066357806340c10f191461066d57806342842e0e146106d35780634f6ccce714610741576101ab565b806327dc297e146103e05780632f745c59146104a557806338bbfa5014610507576101ab565b806301ffc9a7146101b057806306fdde0314610215578063081812fc14610298578063095ea7b31461030657806318160ddd1461035457806323b872dd14610372575b600080fd5b6101fb600480360360208110156101c657600080fd5b8101908080357bffffffffffffffffffffffffffffffffffffffffffffffffffffffff191690602001909291905050506111eb565b604051808215151515815260200191505060405180910390f35b61021d611253565b6040518080602001828103825283818151815260200191508051906020019080838360005b8381101561025d578082015181840152602081019050610242565b50505050905090810190601f16801561028a5780820380516001836020036101000a031916815260200191505b509250505060405180910390f35b6102c4600480360360208110156102ae57600080fd5b81019080803590602001909291905050506112f5565b604051808273ffffffffffffffffffffffffffffffffffffffff1673ffffffffffffffffffffffffffffffffffffffff16815260200191505060405180910390f35b6103526004803603604081101561031c57600080fd5b81019080803573ffffffffffffffffffffffffffffffffffffffff16906020019092919080359060200190929190505050611332565b005b61035c61152c565b6040518082815260200191505060405180910390f35b6103de6004803603606081101561038857600080fd5b81019080803573ffffffffffffffffffffffffffffffffffffffff169060200190929190803573ffffffffffffffffffffffffffffffffffffffff16906020019092919080359060200190929190505050611539565b005b6104a3600480360360408110156103f657600080fd5b81019080803590602001909291908035906020019064010000000081111561041d57600080fd5b82018360208201111561042f57600080fd5b8035906020019184600183028401116401000000008311171561045157600080fd5b91908080601f016020809104026020016040519081016040528093929190818152602001838380828437600081840152601f19601f82011690508083019250505050505050919291929050505061155e565b005b6104f1600480360360408110156104bb57600080fd5b81019080803573ffffffffffffffffffffffffffffffffffffffff169060200190929190803590602001909291905050506115a1565b6040518082815260200191505060405180910390f35b6106616004803603606081101561051d57600080fd5b81019080803590602001909291908035906020019064010000000081111561054457600080fd5b82018360208201111561055657600080fd5b8035906020019184600183028401116401000000008311171561057857600080fd5b91908080601f016020809104026020016040519081016040528093929190818152602001838380828437600081840152601f19601f820116905080830192505050505050509192919290803590602001906401000000008111156105db57600080fd5b8201836020820111156105ed57600080fd5b8035906020019184600183028401116401000000008311171561060f57600080fd5b91908080601f016020809104026020016040519081016040528093929190818152602001838380828437600081840152601f19601f820116905080830192505050505050509192919290505050611618565b005b61066b61161d565b005b6106b96004803603604081101561068357600080fd5b81019080803573ffffffffffffffffffffffffffffffffffffffff169060200190929190803590602001909291905050506117cb565b604051808215151515815260200191505060405180910390f35b61073f600480360360608110156106e957600080fd5b81019080803573ffffffffffffffffffffffffffffffffffffffff169060200190929190803573ffffffffffffffffffffffffffffffffffffffff169060200190929190803590602001909291905050506118ae565b005b61076d6004803603602081101561075757600080fd5b81019080803590602001909291905050506118cf565b6040518082815260200191505060405180910390f35b6107af6004803603602081101561079957600080fd5b8101908080359060200190929190505050611907565b604051808273ffffffffffffffffffffffffffffffffffffffff1673ffffffffffffffffffffffffffffffffffffffff16815260200191505060405180910390f35b6108336004803603602081101561080757600080fd5b81019080803573ffffffffffffffffffffffffffffffffffffffff169060200190929190505050611944565b6040518082815260200191505060405180910390f35b610851611994565b005b61085b611b43565b604051808273ffffffffffffffffffffffffffffffffffffffff1673ffffffffffffffffffffffffffffffffffffffff16815260200191505060405180910390f35b6108a5611b6c565b6040518080602001828103825283818151815260200191508051906020019080838360005b838110156108e55780820151818401526020810190506108ca565b50505050905090810190601f1680156109125780820380516001836020036101000a031916815260200191505b509250505060405180910390f35b61096e6004803603604081101561093657600080fd5b81019080803573ffffffffffffffffffffffffffffffffffffffff169060200190929190803515159060200190929190505050611c0e565b005b610a736004803603608081101561098657600080fd5b81019080803573ffffffffffffffffffffffffffffffffffffffff169060200190929190803573ffffffffffffffffffffffffffffffffffffffff16906020019092919080359060200190929190803590602001906401000000008111156109ed57600080fd5b8201836020820111156109ff57600080fd5b80359060200191846001830284011164010000000083111715610a2157600080fd5b91908080601f016020809104026020016040519081016040528093929190818152602001838380828437600081840152601f19601f820116905080830192505050505050509192919290505050611d4a565b005b610d3960048036036102a0811015610a8c57600080fd5b81019080803573ffffffffffffffffffffffffffffffffffffffff16906020019092919080604001906002806020026040519081016040528092919082600260200280828437600081840152601f19601f820116905080830192505050505050919291929080604001906002806020026040519081016040528092919082600260200280828437600081840152601f19601f82011690508083019250505050505091929192908060800190600280602002604051908101604052809291906000905b82821015610ba2578382604002016002806020026040519081016040528092919082600260200280828437600081840152601f19601f82011690508083019250505050505081526020019060010190610b4e565b50505050919291929080604001906002806020026040519081016040528092919082600260200280828437600081840152601f19601f820116905080830192505050505050919291929080604001906002806020026040519081016040528092919082600260200280828437600081840152601f19601f820116905080830192505050505050919291929080604001906002806020026040519081016040528092919082600260200280828437600081840152601f19601f820116905080830192505050505050919291929080604001906002806020026040519081016040528092919082600260200280828437600081840152601f19601f820116905080830192505050505050919291929080604001906002806020026040519081016040528092919082600260200280828437600081840152601f19601f820116905080830192505050505050919291929080604001906002806020026040519081016040528092919082600260200280828437600081840152601f19601f8201169050808301925050505050509192919290505050611d72565b005b610d6760048036036020811015610d5157600080fd5b8101908080359060200190929190505050612330565b6040518080602001828103825283818151815260200191508051906020019080838360005b83811015610da7578082015181840152602081019050610d8c565b50505050905090810190601f168015610dd45780820380516001836020036101000a031916815260200191505b509250505060405180910390f35b6110a660048036036102a0811015610df957600080fd5b81019080803573ffffffffffffffffffffffffffffffffffffffff16906020019092919080604001906002806020026040519081016040528092919082600260200280828437600081840152601f19601f820116905080830192505050505050919291929080604001906002806020026040519081016040528092919082600260200280828437600081840152601f19601f82011690508083019250505050505091929192908060800190600280602002604051908101604052809291906000905b82821015610f0f578382604002016002806020026040519081016040528092919082600260200280828437600081840152601f19601f82011690508083019250505050505081526020019060010190610ebb565b50505050919291929080604001906002806020026040519081016040528092919082600260200280828437600081840152601f19601f820116905080830192505050505050919291929080604001906002806020026040519081016040528092919082600260200280828437600081840152601f19601f820116905080830192505050505050919291929080604001906002806020026040519081016040528092919082600260200280828437600081840152601f19601f820116905080830192505050505050919291929080604001906002806020026040519081016040528092919082600260200280828437600081840152601f19601f820116905080830192505050505050919291929080604001906002806020026040519081016040528092919082600260200280828437600081840152601f19601f820116905080830192505050505050919291929080604001906002806020026040519081016040528092919082600260200280828437600081840152601f19601f82011690508083019250505050505091929192905050506123f9565b005b6110b0612911565b6040518080602001828103825283818151815260200191508051906020019080838360005b838110156110f05780820151818401526020810190506110d5565b50505050905090810190601f16801561111d5780820380516001836020036101000a031916815260200191505b509250505060405180910390f35b61118d6004803603604081101561114157600080fd5b81019080803573ffffffffffffffffffffffffffffffffffffffff169060200190929190803573ffffffffffffffffffffffffffffffffffffffff1690602001909291905050506129b3565b604051808215151515815260200191505060405180910390f35b6111e9600480360360208110156111bd57600080fd5b81019080803573ffffffffffffffffffffffffffffffffffffffff169060200190929190505050612a47565b005b600060016000837bffffffffffffffffffffffffffffffffffffffffffffffffffffffff19167bffffffffffffffffffffffffffffffffffffffffffffffffffffffff1916815260200190815260200160002060009054906101000a900460ff169050919050565b6060600f8054600181600116156101000203166002900480601f0160208091040260200160405190810160405280929190818152602001828054600181600116156101000203166002900480156112eb5780601f106112c0576101008083540402835291602001916112eb565b820191906000526020600020905b8154815290600101906020018083116112ce57829003601f168201915b5050505050905090565b60006003600083815260200190815260200160002060009054906101000a900473ffffffffffffffffffffffffffffffffffffffff169050919050565b600061133d82611907565b90508273ffffffffffffffffffffffffffffffffffffffff168173ffffffffffffffffffffffffffffffffffffffff16141515156113e3576040517f08c379a00000000000000000000000000000000000000000000000000000000081526004018080602001828103825260188152602001807f43616e206e6f7420617070726f766520796f757273656c66000000000000000081525060200191505060405180910390fd5b3373ffffffffffffffffffffffffffffffffffffffff168173ffffffffffffffffffffffffffffffffffffffff161480611423575061142281336129b3565b5b151561147a576040517f08c379a000000000000000000000000000000000000000000000000000000000815260040180806020018281038252602b81526020018061404f602b913960400191505060405180910390fd5b826003600084815260200190815260200160002060006101000a81548173ffffffffffffffffffffffffffffffffffffffff021916908373ffffffffffffffffffffffffffffffffffffffff160217905550818373ffffffffffffffffffffffffffffffffffffffff168273ffffffffffffffffffffffffffffffffffffffff167f8c5be1e5ebec7d5bd14f71427d1e84f3dd0314c0f7b2291e5b200ac8c7c3b92560405160405180910390a4505050565b6000600880549050905090565b6115433382612c05565b151561154e57600080fd5b611559838383612c9a565b505050565b61159d828260006040519080825280601f01601f1916602001820160405280156115975781602001600182028038833980820191505090505b50611618565b5050565b60006115ac83611944565b821015156115b957600080fd5b600660008473ffffffffffffffffffffffffffffffffffffffff1673ffffffffffffffffffffffffffffffffffffffff1681526020019081526020016000208281548110151561160557fe5b9060005260206000200154905092915050565b505050565b6000809054906101000a900473ffffffffffffffffffffffffffffffffffffffff1673ffffffffffffffffffffffffffffffffffffffff163373ffffffffffffffffffffffffffffffffffffffff161415156116e1576040517f08c379a00000000000000000000000000000000000000000000000000000000081526004018080602001828103825260138152602001807f486579207065726d697373696f6e2064656e790000000000000000000000000081525060200191505060405180910390fd5b60011515600060149054906101000a900460ff16151514151561176c576040517f08c379a000000000000000000000000000000000000000000000000000000000815260040180806020018281038252601e8152602001807f436f6e74726163742063757272656e74206973206e6f7420706175736564000081525060200191505060405180910390fd5b60008060146101000a81548160ff0219169083151502179055503373ffffffffffffffffffffffffffffffffffffffff167f5db9ee0a495bf2e6ff9c91a7834c1ba4fdd244a5e8aa4e537bd38aeae4b073aa60405160405180910390a2565b60008060009054906101000a900473ffffffffffffffffffffffffffffffffffffffff1673ffffffffffffffffffffffffffffffffffffffff163373ffffffffffffffffffffffffffffffffffffffff16141515611891576040517f08c379a00000000000000000000000000000000000000000000000000000000081526004018080602001828103825260138152602001807f486579207065726d697373696f6e2064656e790000000000000000000000000081525060200191505060405180910390fd5b61189b8383612cbe565b6118a482612cdf565b6001905092915050565b6118ca8383836020604051908101604052806000815250611d4a565b505050565b60006118d961152c565b821015156118e657600080fd5b6008828154811015156118f557fe5b90600052602060002001549050919050565b60006002600083815260200190815260200160002060009054906101000a900473ffffffffffffffffffffffffffffffffffffffff169050919050565b600061198d600460008473ffffffffffffffffffffffffffffffffffffffff1673ffffffffffffffffffffffffffffffffffffffff168152602001908152602001600020612dc9565b9050919050565b6000809054906101000a900473ffffffffffffffffffffffffffffffffffffffff1673ffffffffffffffffffffffffffffffffffffffff163373ffffffffffffffffffffffffffffffffffffffff16141515611a58576040517f08c379a00000000000000000000000000000000000000000000000000000000081526004018080602001828103825260138152602001807f486579207065726d697373696f6e2064656e790000000000000000000000000081525060200191505060405180910390fd5b60001515600060149054906101000a900460ff161515141515611ae3576040517f08c379a000000000000000000000000000000000000000000000000000000000815260040180806020018281038252601a8152602001807f436f6e74726163742063757272656e742069732070617573656400000000000081525060200191505060405180910390fd5b6001600060146101000a81548160ff0219169083151502179055503373ffffffffffffffffffffffffffffffffffffffff167f62e78cea01bee320cd4e420270b5ea74000d11b0c9f74754ebdbfc544b05a25860405160405180910390a2565b60008060009054906101000a900473ffffffffffffffffffffffffffffffffffffffff16905090565b606060108054600181600116156101000203166002900480601f016020809104026020016040519081016040528092919081815260200182805460018160011615610100020316600290048015611c045780601f10611bd957610100808354040283529160200191611c04565b820191906000526020600020905b815481529060010190602001808311611be757829003601f168201915b5050505050905090565b3373ffffffffffffffffffffffffffffffffffffffff168273ffffffffffffffffffffffffffffffffffffffff1614151515611c4957600080fd5b80600560003373ffffffffffffffffffffffffffffffffffffffff1673ffffffffffffffffffffffffffffffffffffffff16815260200190815260200160002060008473ffffffffffffffffffffffffffffffffffffffff1673ffffffffffffffffffffffffffffffffffffffff16815260200190815260200160002060006101000a81548160ff0219169083151502179055508173ffffffffffffffffffffffffffffffffffffffff163373ffffffffffffffffffffffffffffffffffffffff167f17307eab39ab6107e8899845ad3d59bd9653f200f220920489ca2b5937696c3183604051808215151515815260200191505060405180910390a35050565b611d55848484611539565b611d6184848484612dd7565b1515611d6c57600080fd5b50505050565b6000898989898989898989604051602001808a600260200280838360005b83811015611dab578082015181840152602081019050611d90565b5050505090500189600260200280838360005b83811015611dd9578082015181840152602081019050611dbe565b505050509050018860026000925b81841015611e2d5782846020020151600260200280838360005b83811015611e1c578082015181840152602081019050611e01565b505050509050019260010192611de7565b9250505087600260200280838360005b83811015611e58578082015181840152602081019050611e3d565b5050505090500186600260200280838360005b83811015611e86578082015181840152602081019050611e6b565b5050505090500185600260200280838360005b83811015611eb4578082015181840152602081019050611e99565b5050505090500184600260200280838360005b83811015611ee2578082015181840152602081019050611ec7565b5050505090500183600260200280838360005b83811015611f10578082015181840152602081019050611ef5565b5050505090500182600260200280838360005b83811015611f3e578082015181840152602081019050611f23565b5050505090500199505050505050505050506040516020818303038152906040528051906020012090506014600082815260200190815260200160002060009054906101000a900460ff16151515611ffe576040517f08c379a000000000000000000000000000000000000000000000000000000000815260040180806020018281038252601b8152602001807f536f6c7574696f6e20686173206265656e207375626d6974746564000000000081525060200191505060405180910390fd5b601560009054906101000a900473ffffffffffffffffffffffffffffffffffffffff1673ffffffffffffffffffffffffffffffffffffffff1663fe01ff628b8b8b8b8b8b8b8b8b6040518a63ffffffff167c0100000000000000000000000000000000000000000000000000000000028152600401808a600260200280838360005b8381101561209b578082015181840152602081019050612080565b5050505090500189600260200280838360005b838110156120c95780820151818401526020810190506120ae565b505050509050018860026000925b8184101561211d5782846020020151600260200280838360005b8381101561210c5780820151818401526020810190506120f1565b5050505090500192600101926120d7565b9250505087600260200280838360005b8381101561214857808201518184015260208101905061212d565b5050505090500186600260200280838360005b8381101561217657808201518184015260208101905061215b565b5050505090500185600260200280838360005b838110156121a4578082015181840152602081019050612189565b5050505090500184600260200280838360005b838110156121d25780820151818401526020810190506121b7565b5050505090500183600260200280838360005b838110156122005780820151818401526020810190506121e5565b5050505090500182600260200280838360005b8381101561222e578082015181840152602081019050612213565b505050509050019950505050505050505050602060405180830381600087803b15801561225a57600080fd5b505af115801561226e573d6000803e3d6000fd5b505050506040513d602081101561228457600080fd5b81019080805190602001909291905050501515612309576040517f08c379a000000000000000000000000000000000000000000000000000000000815260040180806020018281038252600d8152602001807f566572696679206661696c65640000000000000000000000000000000000000081525060200191505060405180910390fd5b612313818c612ffa565b6123228b6013805490506117cb565b505050505050505050505050565b606061233b8261314f565b151561234657600080fd5b601260008381526020019081526020016000208054600181600116156101000203166002900480601f0160208091040260200160405190810160405280929190818152602001828054600181600116156101000203166002900480156123ed5780601f106123c2576101008083540402835291602001916123ed565b820191906000526020600020905b8154815290600101906020018083116123d057829003601f168201915b50505050509050919050565b601560009054906101000a900473ffffffffffffffffffffffffffffffffffffffff1673ffffffffffffffffffffffffffffffffffffffff1663fe01ff628a8a8a8a8a8a8a8a8a6040518a63ffffffff167c0100000000000000000000000000000000000000000000000000000000028152600401808a600260200280838360005b8381101561249657808201518184015260208101905061247b565b5050505090500189600260200280838360005b838110156124c45780820151818401526020810190506124a9565b505050509050018860026000925b818410156125185782846020020151600260200280838360005b838110156125075780820151818401526020810190506124ec565b5050505090500192600101926124d2565b9250505087600260200280838360005b83811015612543578082015181840152602081019050612528565b5050505090500186600260200280838360005b83811015612571578082015181840152602081019050612556565b5050505090500185600260200280838360005b8381101561259f578082015181840152602081019050612584565b5050505090500184600260200280838360005b838110156125cd5780820151818401526020810190506125b2565b5050505090500183600260200280838360005b838110156125fb5780820151818401526020810190506125e0565b5050505090500182600260200280838360005b8381101561262957808201518184015260208101905061260e565b505050509050019950505050505050505050602060405180830381600087803b15801561265557600080fd5b505af1158015612669573d6000803e3d6000fd5b505050506040513d602081101561267f57600080fd5b81019080805190602001909291905050501515612704576040517f08c379a00000000000000000000000000000000000000000000000000000000081526004018080602001828103825260128152602001807f736f6c7574696f6e206e6f742076616c6964000000000000000000000000000081525060200191505060405180910390fd5b6000898989898989898989604051602001808a600260200280838360005b8381101561273d578082015181840152602081019050612722565b5050505090500189600260200280838360005b8381101561276b578082015181840152602081019050612750565b505050509050018860026000925b818410156127bf5782846020020151600260200280838360005b838110156127ae578082015181840152602081019050612793565b505050509050019260010192612779565b9250505087600260200280838360005b838110156127ea5780820151818401526020810190506127cf565b5050505090500186600260200280838360005b838110156128185780820151818401526020810190506127fd565b5050505090500185600260200280838360005b8381101561284657808201518184015260208101905061282b565b5050505090500184600260200280838360005b83811015612874578082015181840152602081019050612859565b5050505090500183600260200280838360005b838110156128a2578082015181840152602081019050612887565b5050505090500182600260200280838360005b838110156128d05780820151818401526020810190506128b5565b505050509050019950505050505050505050604051602081830303815290604052805190602001209050612904818c612ffa565b5050505050505050505050565b606060118054600181600116156101000203166002900480601f0160208091040260200160405190810160405280929190818152602001828054600181600116156101000203166002900480156129a95780601f1061297e576101008083540402835291602001916129a9565b820191906000526020600020905b81548152906001019060200180831161298c57829003601f168201915b5050505050905090565b6000600560008473ffffffffffffffffffffffffffffffffffffffff1673ffffffffffffffffffffffffffffffffffffffff16815260200190815260200160002060008373ffffffffffffffffffffffffffffffffffffffff1673ffffffffffffffffffffffffffffffffffffffff16815260200190815260200160002060009054906101000a900460ff16905092915050565b6000809054906101000a900473ffffffffffffffffffffffffffffffffffffffff1673ffffffffffffffffffffffffffffffffffffffff163373ffffffffffffffffffffffffffffffffffffffff16141515612b0b576040517f08c379a00000000000000000000000000000000000000000000000000000000081526004018080602001828103825260138152602001807f486579207065726d697373696f6e2064656e790000000000000000000000000081525060200191505060405180910390fd5b600073ffffffffffffffffffffffffffffffffffffffff168173ffffffffffffffffffffffffffffffffffffffff1614151515612b4757600080fd5b8073ffffffffffffffffffffffffffffffffffffffff166000809054906101000a900473ffffffffffffffffffffffffffffffffffffffff1673ffffffffffffffffffffffffffffffffffffffff167f8be0079c531659141344cd1fd0a4f28419497f9722a3daafe3b4186f6b6457e060405160405180910390a3806000806101000a81548173ffffffffffffffffffffffffffffffffffffffff021916908373ffffffffffffffffffffffffffffffffffffffff16021790555050565b600080612c1183611907565b90508073ffffffffffffffffffffffffffffffffffffffff168473ffffffffffffffffffffffffffffffffffffffff161480612c8057508373ffffffffffffffffffffffffffffffffffffffff16612c68846112f5565b73ffffffffffffffffffffffffffffffffffffffff16145b80612c915750612c9081856129b3565b5b91505092915050565b612ca58383836131c1565b612caf838261343d565b612cb982826135e1565b505050565b612cc882826136a8565b612cd282826135e1565b612cdb81613848565b5050565b612ce88161314f565b1515612cf357600080fd5b612d9f60118054600181600116156101000203166002900480601f016020809104026020016040519081016040528092919081815260200182805460018160011615610100020316600290048015612d8c5780601f10612d6157610100808354040283529160200191612d8c565b820191906000526020600020905b815481529060010190602001808311612d6f57829003601f168201915b5050505050612d9a83613894565b6139ed565b601260008381526020019081526020016000209080519060200190612dc5929190613f7d565b5050565b600081600001549050919050565b6000612df88473ffffffffffffffffffffffffffffffffffffffff16613a34565b1515612e075760019050612ff2565b60008473ffffffffffffffffffffffffffffffffffffffff1663150b7a02338887876040518563ffffffff167c0100000000000000000000000000000000000000000000000000000000028152600401808573ffffffffffffffffffffffffffffffffffffffff1673ffffffffffffffffffffffffffffffffffffffff1681526020018473ffffffffffffffffffffffffffffffffffffffff1673ffffffffffffffffffffffffffffffffffffffff16815260200183815260200180602001828103825283818151815260200191508051906020019080838360005b83811015612efe578082015181840152602081019050612ee3565b50505050905090810190601f168015612f2b5780820380516001836020036101000a031916815260200191505b5095505050505050602060405180830381600087803b158015612f4d57600080fd5b505af1158015612f61573d6000803e3d6000fd5b505050506040513d6020811015612f7757600080fd5b8101908080519060200190929190505050905063150b7a027c0100000000000000000000000000000000000000000000000000000000027bffffffffffffffffffffffffffffffffffffffffffffffffffffffff1916817bffffffffffffffffffffffffffffffffffffffffffffffffffffffff1916149150505b949350505050565b60006001601380549050019050601360408051908101604052808381526020018473ffffffffffffffffffffffffffffffffffffffff16815250908060018154018082558091505090600182039060005260206000209060020201600090919290919091506000820151816000015560208201518160010160006101000a81548173ffffffffffffffffffffffffffffffffffffffff021916908373ffffffffffffffffffffffffffffffffffffffff16021790555050505060016014600085815260200190815260200160002060006101000a81548160ff0219169083151502179055507f078793128cefb19aac38a33f9e5df39f67716907f6d747e8065545699e0b2b8d8183604051808381526020018273ffffffffffffffffffffffffffffffffffffffff1673ffffffffffffffffffffffffffffffffffffffff1681526020019250505060405180910390a1505050565b6000806002600084815260200190815260200160002060009054906101000a900473ffffffffffffffffffffffffffffffffffffffff169050600073ffffffffffffffffffffffffffffffffffffffff168173ffffffffffffffffffffffffffffffffffffffff161415915050919050565b8273ffffffffffffffffffffffffffffffffffffffff166131e182611907565b73ffffffffffffffffffffffffffffffffffffffff1614151561324f576040517f08c379a000000000000000000000000000000000000000000000000000000000815260040180806020018281038252602b81526020018061407a602b913960400191505060405180910390fd5b600073ffffffffffffffffffffffffffffffffffffffff168273ffffffffffffffffffffffffffffffffffffffff16141515156132f4576040517f08c379a00000000000000000000000000000000000000000000000000000000081526004018080602001828103825260128152602001807f496e76616c696420746f2061646472657373000000000000000000000000000081525060200191505060405180910390fd5b6132fd81613a47565b613344600460008573ffffffffffffffffffffffffffffffffffffffff1673ffffffffffffffffffffffffffffffffffffffff168152602001908152602001600020613b07565b61338b600460008473ffffffffffffffffffffffffffffffffffffffff1673ffffffffffffffffffffffffffffffffffffffff168152602001908152602001600020613b2a565b816002600083815260200190815260200160002060006101000a81548173ffffffffffffffffffffffffffffffffffffffff021916908373ffffffffffffffffffffffffffffffffffffffff160217905550808273ffffffffffffffffffffffffffffffffffffffff168473ffffffffffffffffffffffffffffffffffffffff167fddf252ad1be2c89b69c2b068fc378daa952ba7f163c4a11628f55a4df523b3ef60405160405180910390a4505050565b60006134956001600660008673ffffffffffffffffffffffffffffffffffffffff1673ffffffffffffffffffffffffffffffffffffffff16815260200190815260200160002080549050613b4090919063ffffffff16565b90506000600760008481526020019081526020016000205490508181141515613588576000600660008673ffffffffffffffffffffffffffffffffffffffff1673ffffffffffffffffffffffffffffffffffffffff1681526020019081526020016000208381548110151561350657fe5b9060005260206000200154905080600660008773ffffffffffffffffffffffffffffffffffffffff1673ffffffffffffffffffffffffffffffffffffffff1681526020019081526020016000208381548110151561356057fe5b9060005260206000200181905550816007600083815260200190815260200160002081905550505b600660008573ffffffffffffffffffffffffffffffffffffffff1673ffffffffffffffffffffffffffffffffffffffff1681526020019081526020016000208054809190600190036135da9190613ffd565b5050505050565b600660008373ffffffffffffffffffffffffffffffffffffffff1673ffffffffffffffffffffffffffffffffffffffff168152602001908152602001600020805490506007600083815260200190815260200160002081905550600660008373ffffffffffffffffffffffffffffffffffffffff1673ffffffffffffffffffffffffffffffffffffffff1681526020019081526020016000208190806001815401808255809150509060018203906000526020600020016000909192909190915055505050565b600073ffffffffffffffffffffffffffffffffffffffff168273ffffffffffffffffffffffffffffffffffffffff16141580156137445750600073ffffffffffffffffffffffffffffffffffffffff166002600083815260200190815260200160002060009054906101000a900473ffffffffffffffffffffffffffffffffffffffff1673ffffffffffffffffffffffffffffffffffffffff16145b151561374f57600080fd5b613796600460008473ffffffffffffffffffffffffffffffffffffffff1673ffffffffffffffffffffffffffffffffffffffff168152602001908152602001600020613b2a565b816002600083815260200190815260200160002060006101000a81548173ffffffffffffffffffffffffffffffffffffffff021916908373ffffffffffffffffffffffffffffffffffffffff160217905550808273ffffffffffffffffffffffffffffffffffffffff16600073ffffffffffffffffffffffffffffffffffffffff167fddf252ad1be2c89b69c2b068fc378daa952ba7f163c4a11628f55a4df523b3ef60405160405180910390a45050565b6008805490506009600083815260200190815260200160002081905550600881908060018154018082558091505090600182039060005260206000200160009091929091909150555050565b606060008214156138dc576040805190810160405280600181526020017f300000000000000000000000000000000000000000000000000000000000000081525090506139e8565b600082905060005b60008214151561390a578080600101915050600a8281151561390257fe5b0491506138e4565b6060816040519080825280601f01601f19166020018201604052801561393f5781602001600182028038833980820191505090505b50905060006001830390505b6000861415156139e057600a8681151561396157fe5b066030017f01000000000000000000000000000000000000000000000000000000000000000282828060019003935081518110151561399c57fe5b9060200101907effffffffffffffffffffffffffffffffffffffffffffffffffffffffffffff1916908160001a905350600a868115156139d857fe5b04955061394b565b819450505050505b919050565b6060613a2c8383602060405190810160405280600081525060206040519081016040528060008152506020604051908101604052806000815250613b62565b905092915050565b600080823b905060008111915050919050565b600073ffffffffffffffffffffffffffffffffffffffff166003600083815260200190815260200160002060009054906101000a900473ffffffffffffffffffffffffffffffffffffffff1673ffffffffffffffffffffffffffffffffffffffff16141515613b045760006003600083815260200190815260200160002060006101000a81548173ffffffffffffffffffffffffffffffffffffffff021916908373ffffffffffffffffffffffffffffffffffffffff1602179055505b50565b613b1f60018260000154613b4090919063ffffffff16565b816000018190555050565b6001816000016000828254019250508190555050565b6000828211151515613b5157600080fd5b600082840390508091505092915050565b6060808690506060869050606086905060608690506060869050606081518351855187518951010101016040519080825280601f01601f191660200182016040528015613bbe5781602001600182028038833980820191505090505b509050606081905060008090506000809050600090505b8851811015613c88578881815181101515613bec57fe5b9060200101517f010000000000000000000000000000000000000000000000000000000000000090047f0100000000000000000000000000000000000000000000000000000000000000028383806001019450815181101515613c4b57fe5b9060200101907effffffffffffffffffffffffffffffffffffffffffffffffffffffffffffff1916908160001a9053508080600101915050613bd5565b600090505b8751811015613d40578781815181101515613ca457fe5b9060200101517f010000000000000000000000000000000000000000000000000000000000000090047f0100000000000000000000000000000000000000000000000000000000000000028383806001019450815181101515613d0357fe5b9060200101907effffffffffffffffffffffffffffffffffffffffffffffffffffffffffffff1916908160001a9053508080600101915050613c8d565b600090505b8651811015613df8578681815181101515613d5c57fe5b9060200101517f010000000000000000000000000000000000000000000000000000000000000090047f0100000000000000000000000000000000000000000000000000000000000000028383806001019450815181101515613dbb57fe5b9060200101907effffffffffffffffffffffffffffffffffffffffffffffffffffffffffffff1916908160001a9053508080600101915050613d45565b600090505b8551811015613eb0578581815181101515613e1457fe5b9060200101517f010000000000000000000000000000000000000000000000000000000000000090047f0100000000000000000000000000000000000000000000000000000000000000028383806001019450815181101515613e7357fe5b9060200101907effffffffffffffffffffffffffffffffffffffffffffffffffffffffffffff1916908160001a9053508080600101915050613dfd565b600090505b8451811015613f68578481815181101515613ecc57fe5b9060200101517f010000000000000000000000000000000000000000000000000000000000000090047f0100000000000000000000000000000000000000000000000000000000000000028383806001019450815181101515613f2b57fe5b9060200101907effffffffffffffffffffffffffffffffffffffffffffffffffffffffffffff1916908160001a9053508080600101915050613eb5565b82995050505050505050505095945050505050565b828054600181600116156101000203166002900490600052602060002090601f016020900481019282601f10613fbe57805160ff1916838001178555613fec565b82800160010185558215613fec579182015b82811115613feb578251825591602001919060010190613fd0565b5b509050613ff99190614029565b5090565b815481835581811115614024578183600052602060002091820191016140239190614029565b5b505050565b61404b91905b8082111561404757600081600090555060010161402f565b5090565b9056fe43616c6c6572206973206e6f7420617574686f72697a656420616761696e7374207468697320746f6b656e46726f6d2061646472657373206973206e6f7420746865206f776e6572206f66207468697320746f6b656ea165627a7a72305820da8d58c1463cdfbfcdc747fcc17c1f320b6af1a599a03ce31236063a4afa8efa002968747470733a2f2f73332d75732d776573742d322e616d617a6f6e6177732e636f6d2f756461636974792d626c6f636b636861696e2f63617073746f6e652f",
  "source": "pragma solidity >=0.4.21 <0.6.0;\n\nimport \"./ERC721Mintable.sol\";\n\n// define a contract call to the zokrates generated solidity contract <Verifier> or <renamedVerifier>\ncontract Verifier {\n    function verifyTx(\n        uint256[2] memory a,\n        uint256[2] memory a_p,\n        uint256[2][2] memory b,\n        uint256[2] memory b_p,\n        uint256[2] memory c,\n        uint256[2] memory c_p,\n        uint256[2] memory h,\n        uint256[2] memory k,\n        uint256[2] memory input\n    ) public returns (bool r);\n}\n\n// define another contract named SolnSquareVerifier that inherits from your ERC721Mintable class\ncontract SolnSquareVerifier is ERC721MintableComplete {\n    // define a solutions struct that can hold an index & an address\n    struct Solution {\n        uint256 index;\n        address account;\n    }\n\n    // define an array of the above struct\n    Solution[] private solutions;\n\n    // define a mapping to store unique solutions submitted (solutionHash => solution)\n    mapping(bytes32 => bool) private submittedSolutions;\n\n    // Create an event to emit when a solution is added\n    event SolutionAdded(uint256 index, address account);\n\n    Verifier verifier;\n\n    constructor(address verifierAddress) public {\n        verifier = Verifier(verifierAddress);\n    }\n\n    // Create a function to add the solutions to the array and emit the event\n    function addSolution(bytes32 solutionHash, address account) private {\n        uint256 solutionIndex = solutions.length + 1;\n        solutions.push(Solution(solutionIndex, account));\n        submittedSolutions[solutionHash] = true;\n        emit SolutionAdded(solutionIndex, account);\n    }\n\n    function canMintToken(address _to,\n        uint[2] memory a,\n        uint[2] memory a_p,\n        uint[2][2] memory b,\n        uint[2] memory b_p,\n        uint[2] memory c,\n        uint[2] memory c_p,\n        uint[2] memory h,\n        uint[2] memory k,\n        uint[2] memory input)\n        public           \n    {\n        // check if solution is valid\n        require(verifier.verifyTx(a, a_p, b, b_p, c, c_p, h, k, input), \"solution not valid\");\n        bytes32 solutionHash = keccak256(abi.encodePacked(a,a_p,b,b_p,c,c_p,h,k,input));\n        // require(submittedSolutions[solutionHash], \"Solution has been submitted\");    \n        \n        addSolution(solutionHash, _to);        \n    }\n    // Create a function to mint new NFT only after the solution has been verified\n    function mint(\n        address to,\n        uint256[2] memory a,\n        uint256[2] memory a_p,\n        uint256[2][2] memory b,\n        uint256[2] memory b_p,\n        uint256[2] memory c,\n        uint256[2] memory c_p,\n        uint256[2] memory h,\n        uint256[2] memory k,\n        uint256[2] memory input\n    ) public {\n        bytes32 solutionHash = keccak256(\n            abi.encodePacked(a, a_p, b, b_p, c, c_p, h, k, input)\n        );\n\n        //  - make sure the solution is unique (has not been used before)\n        require(\n            !submittedSolutions[solutionHash],\n            \"Solution has been submitted\"\n        );\n        require(\n            verifier.verifyTx(a, a_p, b, b_p, c, c_p, h, k, input),\n            \"Verify failed\"\n        );\n\n        //  - make sure you handle metadata as well as tokenSuplly\n        addSolution(solutionHash, to);\n        super.mint(to, solutions.length);\n    }\n}\n",
  "sourcePath": "/Users/colin.chung/Desktop/learning/Blockchain-Developer-Nanodegree-Program/Blockchain-Capstone/eth-contracts/contracts/SolnSquareVerifier.sol",
  "compiler": {
    "name": "solc",
    "version": "0.5.2+commit.1df8f40c.Emscripten.clang"
  },
  "schemaVersion": "3.0.2",
  "updatedAt": "2022-03-26T07:34:41.426Z",
  "devdoc": {
    "methods": {
      "isApprovedForAll(address,address)": {
        "details": "Tells whether an operator is approved by a given owner",
        "params": {
          "operator": "operator address which you want to query the approval of",
          "owner": "owner address which you want to query the approval of"
        },
        "return": "bool whether the given operator is approved by the given owner"
      },
      "setApprovalForAll(address,bool)": {
        "details": "Sets or unsets the approval of a given operator An operator is allowed to transfer all tokens of the sender on their behalf",
        "params": {
          "approved": "representing the status of the approval to be set",
          "to": "operator address to set the approval"
        }
      },
      "supportsInterface(bytes4)": {
        "details": "implement supportsInterface(bytes4) using a lookup table"
      },
      "tokenByIndex(uint256)": {
        "details": "Gets the token ID at a given index of all the tokens in this contract Reverts if the index is greater or equal to the total number of tokens",
        "params": {
          "index": "uint256 representing the index to be accessed of the tokens list"
        },
        "return": "uint256 token ID at the given index of the tokens list"
      },
      "tokenOfOwnerByIndex(address,uint256)": {
        "details": "Gets the token ID at a given index of the tokens list of the requested owner",
        "params": {
          "index": "uint256 representing the index to be accessed of the requested tokens list",
          "owner": "address owning the tokens list to be accessed"
        },
        "return": "uint256 token ID at the given index of the tokens list owned by the requested address"
      },
      "totalSupply()": {
        "details": "Gets the total amount of tokens stored by the contract",
        "return": "uint256 representing the total amount of tokens"
      }
    }
  },
  "userdoc": {
    "methods": {}
  }
}